:100000000C9446000C9463000C9463000C9400055F
:100010000C9463000C9463000C9463000C946300D4
:100020000C9463000C9463000C9463000C946300C4
:100030000C9463000C9463000C9463000C946300B4
:100040000C9463000C9463000C9463000C946300A4
:100050000C9463000C9463000C9463000C94630094
:100060000C9463000C9463000C9463000C94630084
:100070000C9463000C94630078077B078207890760
:100080009207990799079907BF07EA0711241FBE2E
:10009000CFEFCDBFDFE3DEBF18E3A0E0B8E3EBE1D5
:1000A000F0E202C005900D92A830B107D9F729E31C
:1000B000A8E0B8E301C01D92A335B207E1F70E94A2
:1000C00073010C9483090C9400001F93CF93DF936A
:1000D00000D000D0CDB7DEB70E9464040E94520861
:1000E0000E9453040E94670810E0BE016F5F7F4FBB
:1000F000812F0E94DB05BE016F5F7F4F812F0E9421
:1001000093081F5F133089F72496CDBFDEBFDF91C0
:10011000CF911F9108951F93CF93DF9300D000D00C
:10012000CDB7DEB70E944D080E9456040E946208B7
:100130000E943F0410E0BE016F5F7F4F812F0E943D
:100140006D08BE016F5F7F4F812F0E94F5051F5F15
:10015000133089F72496CDBFDEBFDF91CF911F9179
:100160000895CF93DF9300D000D0CDB7DEB76CE415
:1001700071E48DE490E50E94460881E00E943B080E
:100180008FEF9FEF0E94520884E10E94670888EE7B
:1001900093E089839A8380ED98EE8B839C83BE01E4
:1001A0006F5F7F4F80E00E949308BE016F5F7F4FBB
:1001B00081E00E949308BE016F5F7F4F82E00E9442
:1001C00093080E94FE030E94DF062496CDBFDEBF87
:1001D000DF91CF9108950F931F93CF93DF93CDB706
:1001E000DEB76897CDBFDEBF8EEF9EE90E94E503C4
:1001F0000E9464040E94DE028BE59FE90E94F703DF
:100200008FE09FE90E94E5030E94530490E00E9462
:10021000DE028BE59FE90E94F7038BE59FE90E94D0
:10022000F70387E19FE90E94F70300E010E0BE01B9
:100230006B5E7F4F802F0E94DB058EE19FE90E945D
:10024000E503C8010E94DE0284E29FE90E94E50303
:100250008D899E890E94DE028CE29FE90E94E5035F
:100260008F89988D0E94DE0283E39FE90E94E50357
:10027000802F0E949F060E94DE028AE39FE90E946F
:10028000E503802F0E947E060E94DE0281E49FE942
:100290000E94E503802F0E948C060E9442038BE59A
:1002A0009FE90E94F7030F5F1F4F0330110509F00C
:1002B000BECFCE0101960E94E00864E170E0CE015D
:1002C00001960E94A8038BE59FE90E94F7036896B8
:1002D000CDBFDEBFDF91CF911F910F91089581E0D7
:1002E0008093083808950E94D3060E94D2080E9485
:1002F00094020E942E060E94A0010E94F0040E9417
:100300008B000E94290878940E94EB060E94A405A5
:10031000809108388823C1F310920838C0E08C2FF0
:100320000E949F060E946A048C0199270E94110274
:10033000812F90E00E941102CF5FC33081F7E4CF9C
:10034000E0EEF5E082818283E0E2F4E08581846082
:100350008583818184608183E0E0F8E082E194E03C
:100360008087918723E02783158290EC96831092F3
:100370000B3810920C38E0E0F4E0858182608583D0
:10038000818182608183E0E2F8E04BE551E04087C3
:1003900051872783158296831092093810920A3864
:1003A0000895809104088823A4F480910B3881116A
:1003B00010C080910C3890E08230910508F00197D0
:1003C00020910008FC01E35DF74C208381E08093DD
:1003D0000B38809124088823BCF4209109382032FE
:1003E00098F430910A38822F90E0830F911D81326A
:1003F000910508F0809730912008FC01E35FF74CED
:1004000030832F5F2093093808958091040885FB7D
:10041000882780F90895E0E0F8E0848186FFFDCF29
:1004200008951F93CF93DF93182F8091040885FDC3
:1004300007C0C0E0D8E00E94D1018C8185FFFBCFCE
:1004400010930208DF91CF911F9108950E94D1016E
:1004500081E090910B38911101C080E008950E94D5
:10046000D10180910B388823A9F0E0910C3891E0FC
:100470009E0F90930C38F0E0E35DF74C8081913053
:1004800011F410920C3890910938915090930938DA
:1004900090E008958FEF9FEF08958091240885FBE9
:1004A000882780F90895E0E2F8E0848186FFFDCF97
:1004B00008951F93CF93DF93182F8091240885FD13
:1004C00007C0C0E2D8E00E94D1018C8185FFFBCF3C
:1004D00010932208DF91CF911F9108950E94D101BE
:1004E00081E090910938911101C080E008950E9447
:1004F000D101909109389923A1F0E0910A3821E0C7
:100500002E0F20930A38F0E0E35FF74C8081203211
:1005100019F421E020930A3891509093093890E023
:1005200008958FEF9FEF0895E0EAF0E08181826007
:100530008183AAE0B3E922E233E91496ED91FC91BC
:1005400015978081887F808380818460808380810B
:10055000877F80831896A217B30779F7E0E0F6E06B
:1005600081E0818394E09283118693E09487808375
:1005700008958330910560F4880F991F880F991FA3
:10058000880F991FFC01E65FFC46868180930C066C
:1005900081E180930A06089580910506817008958F
:1005A000E0E0F6E0858180FFFDCF8091100690911C
:1005B0001106A0911206B09113060895FF920F93B1
:1005C0001F93CF93DF93CDB7DEB72A97CDBFDEBFA2
:1005D0008C018AE0E2E2F3E9DE01119601900D92CE
:1005E0008A95E1F789819A810817190798F48B8118
:1005F0009C810817190788F58D819E8108171907B6
:1006000078F58F8198850817190770F56894FF248D
:10061000F2F801C0F12CEF2DF0E0EE0FFF1F81E0AA
:1006200090E08C0F9D1FE80FF91F20813181021788
:10063000130740F080E38F5F021B130B02171307B1
:10064000D0F701C080E3082E000C990B0E945902DC
:10065000F39494E09F15F8F60CC0FF24F394DBCFDD
:100660006894FF24F1F8D7CF0F2EF3E0FF2EF02D82
:10067000D2CF2A96CDBFDEBFDF91CF911F910F91D0
:10068000FF900895CF92DF92EF92FF921F93CF9346
:10069000DF93CDB7DEB7A897CDBFDEBF6B017C017E
:1006A00088E2ECE2F3E9DE01119601900D928A9561
:1006B000E1F789819A81AB81BC81C816D906EA0627
:1006C000FB0698F4FE01359611E081919191A1917C
:1006D000B191C816D906EA06FB0618F01A3030F0B8
:1006E0002CC01F5F193089F701C010E0E1E0F0E095
:1006F000EC0FFD1F84E0189FE00DF11D11244081D7
:10070000518162817381C416D506E606F70660F052
:1007100080E38F5FC41AD50AE60AF70AC416D50625
:10072000E606F706B0F701C080E3082E000C990B2F
:100730000E9459021F5F1A30C8F2A896CDBFDEBFD3
:10074000DF91CF911F91FF90EF90DF90CF900895B0
:10075000EF92FF920F931F93CF93DF937C018B0156
:100760008BE590E00E94590280E290E00E945902DD
:1007700010161106FCF4E7010E0D1F1D7E01E99114
:10078000E295EF70F0E0E85BF046808190E00E9437
:100790005902D701EC91EF70F0E0E85BF046808100
:1007A00090E00E94590280E290E00E945902C01736
:1007B000D10721F78DE590E00E945902DF91CF919A
:1007C0001F910F91FF90EF900895CF93DF93EC016D
:1007D0008881882349F02196082E000C990B0E94ED
:1007E000590289918111F8CFDF91CF9108950E942C
:1007F000E50389E59FE90E94E50308950E945302FD
:100800000895DC019C91992389F180ED890F8A304C
:1008100028F5FD01319620E030E00AC02A3989E14F
:10082000380738F5293989E1380711F4963320F56E
:10083000A901440F551F220F331F220F331F220F10
:10084000331F240F351F290F311D20533109DF01BC
:10085000919140ED490F4A3008F302C020E030E0AA
:10086000FB01208331838A2F9B2F089580E090E045
:10087000089580E090E0089580E090E008958A3047
:1008800020F0883318F087E301C08AE080930638AF
:1008900020E4829FC00111248C529F46809304382B
:1008A000909305380895809106380895A0E0B0E04F
:1008B0000196A11DB11D8093003890930138A0933B
:1008C0000238B09303380895809100389091013830
:1008D00001970895CF92DF92EF92FF920F931F93AB
:1008E000AC01452F55274695469546954F3180F4E6
:1008F000FA013196EE0FFF1F209104383091053830
:10090000E20FF31F20813181890120E030E004C033
:1009100000E010E021E030E0440F551FE091043882
:10092000F0910538E40FF51FC080D180E12CF12C47
:10093000A90198012C193D094E095F09DC01B77026
:100940000E941F09DC01CB01072E7BE0B695A7951D
:10095000979587957A95D1F7702DA7019601280F65
:10096000391F4A1F5B1F60910038709101388091D8
:100970000238909103380E94E7081F910F91FF9071
:10098000EF90DF90CF900895E0915039F091513978
:1009900090818091523998130CC082E292E080934A
:1009A0004A0190934B013196E0935039F0935139BD
:1009B00006C082E292E080934A0190934B018091BD
:1009C00052398F5F813019F0809352390895109217
:1009D000523984ED9EE980935039909351390895AE
:1009E0001092523984ED9EE9809350399093513999
:1009F0000E94C404E0E4F1E081E0828380830895F2
:100A00001F920F920FB60F9211242F933F934F9383
:100A10005F936F937F938F939F93AF93BF93EF9366
:100A2000FF930E946F010E94C404E0E4F1E083811F
:100A300081608383FF91EF91BF91AF919F918F91DF
:100A40007F916F915F914F913F912F910F900FBECA
:100A50000F901F901895EF92FF920F931F93CF93D3
:100A6000DF93C82FD0E0CE01880F991FFC01EF5B08
:100A7000F74C20813181FC01E95BF74C0081118149
:100A80000217130750F5C80180579E4F821793072E
:100A900020F59E01220F331FF901EF5BF74C808395
:100AA0009183AE01440F551F440F551FBA01615D7C
:100AB000774C7B01F901E55CF74C20813181281BE3
:100AC000390B40E050E06FEF7FEFCB010E94F70859
:100AD000F7012083318342835383FE01EE0FFF1F12
:100AE000E55CF74C808191818017910730F50059C2
:100AF00011408017910708F5CE01880F991FFC015E
:100B0000E55CF74C00831183CC0FDD1FCC0FDD1F9C
:100B1000C15DD74CFC01EF5BF74C8081918198015E
:100B2000281B390B40E050E06FEF7FEFCB010E94B4
:100B3000F708288339834A835B83DF91CF911F9124
:100B40000F91FF90EF900895CF9380912E3890E011
:100B50000E94B902E0912E38F0E0EE0FFF1FE95B32
:100B6000F74C808191819C01329522952F7023272B
:100B70003F702327821B930B808391830E94D002B6
:100B8000C0912E38EC2FF0E0EE0FFF1FE95BF74C21
:100B900020813181820F931F808391838C2F0E944B
:100BA0002B05CF5FC33018F4C0932E3802C01092CB
:100BB0002E38CF9108958330B8F490E0880F991FB4
:100BC000FC01EF5BF74C2081318120593140FB0162
:100BD00020833183FC01E55CF74C80819181805753
:100BE0009E4FFB018283938308950F931F93CF93AE
:100BF000833080F5FB01C82F082F10E080819181A0
:100C000080579E4FA801440F551FDA01AF5BB74CC8
:100C10008D939C932281338120593140FA01E55C08
:100C2000F74C20833183000F111F000F111F015D4E
:100C3000174C281B390B40E050E06FEF7FEFCB01E2
:100C40000E94F708F80120833183428353838C2F5D
:100C50000E942B05CF911F910F9108958F929F9223
:100C6000AF92BF92CF92DF92EF92FF920F931F93BA
:100C7000CF93DF9300D000D0CDB7DEB70F2EF7E4CF
:100C8000AF2EF8E3BF2EF02DC12CD12C88248A94EE
:100C9000982C0C2D19821A828B829C82BE016F5F68
:100CA0007F4F8C2D0E94F50510E1E12CF12CC6013F
:100CB0000E94B9020E94D002E80EF91E1150B9F745
:100CC000F501E192F1925F01802F0E942B05FFEF69
:100CD000CF1ADF0A83E0C816D104D9F62496CDBF17
:100CE000DEBFDF91CF911F910F91FF90EF90DF90CA
:100CF000CF90BF90AF909F908F900895833048F42D
:100D0000E82FF0E0EE0FFF1FE95BF74C8081918147
:100D1000089580E090E00895833068F4E82FF0E0D3
:100D2000EE0FFF1FEE0FFF1FE15DF74C6081718139
:100D300082819381089560E070E0CB010895833053
:100D400078F590E09C01220F331FF901E95BF74C25
:100D5000D901A55CB74C2D913C91A081B1812A1796
:100D60003B0708F4D901FC01EE0FFF1FEF5BF74CC6
:100D700020813181A217B30718F0A21BB30B02C068
:100D8000A0E0B0E0880F991F880F991FFC01E15D7A
:100D9000F74C20813181428153810E941F090895BF
:100DA00080E090E0089591E088ED84BF9093610029
:100DB00083EC99E00197F1F700C00000089583ECFF
:100DC00099E00197F1F700C0000091E088ED84BF41
:100DD000909341000895AF92BF92CF92DF92EF922D
:100DE000FF920F931F93CF93DF9300D0CDB7DEB761
:100DF00010C10A30110519F40D3031F40AC10D305B
:100E0000110509F0F4C00CC18BE59FE90E94F703BE
:100E1000E0914D38F0914E38E15BF74C1082B12CE7
:100E2000A12C00E0F12C80E090E00BC0FC01EE0F63
:100E3000FF1FEE0FFF1FEA52F146F380F01608F491
:100E4000C9C0F01246C0880F991F880F991FFC0176
:100E5000EA52F146C080D18010E0F601E00FF11FA8
:100E6000E080E1100AC019C0F3940F2D10E0F601E4
:100E7000E00FF11FE080EE2081F0F801E15BF74C1C
:100E8000808190E00E9439092E2D0E2C000C330B2E
:100E90002817390749F3E11019C0F801E15BF74C55
:100EA0008081803211F4F39402C0811111C08F2D22
:100EB00090E0815B974C4B2D50E04A30510508F093
:100EC0008DC0FA01E45CFF4F0C9419090F2D01C08D
:100ED0000F2DA3948A2D90E0FC01EE0FFF1FEE0F63
:100EE000FF1FEA52F146B28029E0B2129FCF72C0D2
:100EF0000E94EB0073C08CE59FE90E94F7030E94FB
:100F0000B1006CC08AE69FE90E94F7030E948B0043
:100F100065C089E79FE90E94F7030E94FE030E94D3
:100F2000DF065CC083E89FE90E94F7030E9465002A
:100F300055C0BE016F5F7F4F0E9401040097D1F042
:100F4000FC018081811116C081E99FE90E94E503BF
:100F50008BEF8B0D90E00E94DE0285E19FE90E94FD
:100F6000E50389819A810E94DE028BE59FE90E9458
:100F7000F70334C08AE99FE90E94F7032FC0BE013E
:100F80006F5F7F4F0E9401048C0189819A810E94CA
:100F9000560401151105C9F0F8018081811115C0B1
:100FA00089819A810E9456040E94640489839A83ED
:100FB0008EEF9EE90E94E50389819A810E94DE02FC
:100FC0008BE59FE90E94F70309C08AE99FE90E9427
:100FD000F70304C087EA9FE90E94F70387EB9FE9C4
:100FE0000E94E50310924D3810924E3825C0C8017A
:100FF0000E94590280914D3890914E389C012F5F8C
:101000003F4F20934D3830934E38FC01E15BF74C55
:1010100000830E9477028C01019609F0EACE0CC091
:101020008BE59FE90E94F703E0914D38F0914E382F
:10103000E15BF74C1082F3CE0F900F90DF91CF91D0
:101040001F910F91FF90EF90DF90CF90BF90AF90E6
:1010500008958BE59FE90E94F70380EC9FE90E94C9
:10106000F70387EB9FE90E94E503089584E090E091
:101070000E9445090895682F84E090E00E94590974
:10108000089580E090E00E944D090895AB01BC01F5
:1010900080E090E00E946D09089586E090E00E9453
:1010A00054090895CF93DF93EC010E944D088C17EB
:1010B0009D0729F0BE0186E090E00E947509DF914E
:1010C000CF91089585E090E00E9445090895682F2A
:1010D00085E090E00E94590908950F931F93CF93E4
:1010E000DF938330D8F48B01C82FD0E0CE01880F76
:1010F000991F880F991F885F9F4F0E945409F8011C
:1011000080839183CE01880F991F880F991F865F76
:101110009F4F0E945409F80182839383DF91CF91FE
:101120001F910F910895CF92DF92EF92FF920F934C
:101130001F93CF93DF93833060F58B01FB01C08059
:10114000D180C82FD0E0CE01880F991F880F991F3A
:101150009C01285F3F4F7901C9010E945409C816BC
:10116000D90621F0B601C7010E947509F801028174
:101170001381CC0FDD1FCC0FDD1FC65FDF4FCE010B
:101180000E9454090817190721F0B801CE010E94E6
:101190007509DF91CF911F910F91FF90EF90DF9034
:1011A000CF9008950E9441086C3471448D4490455D
:1011B00021F40E943608811102C00E94B1000895F6
:1011C00044E150E060E070E00E9441090895DB01D5
:1011D0008F939F930E941F09BF91AF91A29F800D93
:1011E000911DA39F900DB29F900D11240895A1E22F
:1011F0001A2EAA1BBB1BFD010DC0AA1FBB1FEE1F91
:10120000FF1FA217B307E407F50720F0A21BB30BDB
:10121000E40BF50B661F771F881F991F1A9469F757
:1012200060957095809590959B01AC01BD01CF01B3
:101230000895EE0FFF1F0590F491E02D09940E9490
:101240002A09A59F900DB49F900DA49F800D911D1C
:1012500011240895A29FB001B39FC001A39F700DF8
:10126000811D1124911DB29F700D811D1124911DAE
:1012700008959111089581568A5108F48052855835
:10128000089560507C4E0C947A0903D08081992790
:101290000895FC01E050FC4E08950E9449096081C8
:1012A00071818281938108950E9449098081918191
:1012B0000895262FAF93BF93E0E0F0E1328131FD36
:1012C000FDCFDC01A050BC4E2C933DE934BF23E0A0
:1012D00020830196BF91AF910895242F0E945A094F
:1012E000252F0E945A090C9475090E945909272F2D
:1012F0000C945A09FB01DC0102C001900D9241508F
:0A1300005040D8F70895F894FFCF8D
:10130A00030000041304030004000004140404008E
:10131A0005000004150405001027E80364000A000C
:10132A00010000CA9A3B00E1F50580969800404208
:10133A000F00A086010010270000E80300006400E7
:10134A0000000A0000000100000000000008001070
:10135A0000180020002800300038004000480050E3
:10136A0000580060006800700078008000880090D3
:10137A00009800A000A800B000B800C000C800D0C3
:10138A0000D800E000E800F000F80000A805200CF2
:10139A00F112FE1939219A281B30B7376C3F3747AB
:1013AA00164F08570B5F1D673E6F6E77AA7FF3874C
:1013BA004790A79812A187A906B28EBA20C3BACBC2
:1013CA005CD407DDBAE575EE37F700000004310991
:1013DA00F30E1D15981B582252298130DE37653FBE
:1013EA001447E64EDB56EF5E20676E6FD77759805B
:1013FA00F388A5916D9A4BA33DAC44B55EBE8AC7EE
:10140A00C9D019DA7AE3ECEC6EF60000D402F706DA
:10141A00CC0B2611EB160D1D7F23392A36316F3876
:10142A00E13F87475F4F66579A5FF8677E702C796E
:10143A00FF81F58A0F944A9DA5A620B0B9B970C359
:10144A0044CD34D740E166EBA6F50000000247051B
:10145A005009EE0D091392187E1EC224592B3D32F3
:10146A006939D94089487750A058026199696572EB
:10147A00647B9484F38D81973BA121AB32B56CBF19
:10148A00CFC959D40BDFE2E9DFF400006A01000496
:10149A005907500BD00FC914311A00202F26B92C26
:1014AA009833CA3A4A42154A2952825A2063006C32
:1014BA0020757E7E1888EE91FE9B47A6C7B07DBB3D
:1014CA0069C688D1DBDC61E818F400000001080372
:1014DA00CD053109220D95118016DC1BA221D027DA
:1014EA005E2E4C35943C34442A4C73540D5DF6659B
:1014FA002D6FAF787B82918CED9690A177ACA3B7D4
:10150A0011C3C1CEB2DAE2E652F30000B5004C02D2
:10151A0094047707E80ADF0E54134018A11D7023BC
:10152A00AC2951305C37CB3E9B46CB4E5957436072
:10153A00876925731A7D65870692FB9C43A8DDB3EC
:10154A00C8BF03CC8DD866E58DF200008000BE01CD
:10155A009D0310060F09940C9A101D15191A8C1F59
:10156A007425CD2B9732CF3974418449FE51E15A03
:10157A002B64DB6DF1776A82488D879828A42AB09C
:10158A008DBC4EC96ED6ECE3C8F100005B00520177
:10159A00DA02ED048607A40A430E6112FD16151C31
:1015AA00A921B6273C2E3935AD3C9844F84CCC5588
:1015BA00145FD068FE729F7DB188349428A08CACE9
:1015CA005FB9A3C654D475E204F1000040000001DB
:1015DA004002000440060009400C001040140019A3
:1015EA00401E0024402A0031403800404048005143
:1015FA00405A0064406E007940840090409C00A9E3
:10160A0040B600C440D200E140F000002D00C20004
:10161A00C701400331059D07860AEE0DD611411612
:10162A00301BA3209C261D2D2534B73BD243794C71
:10163A00AA55695FB4698D74F47FEB8B719887A59D
:10164A002EB366C131D08DDF7DEF000020009300FC
:10165A006701A402500470060A09200CB60FD013C1
:10166A006F18961D492388295730B737AA3F324841
:10167A005151075B58654470CC7BF387B99420A21B
:10168A0029B0D6BE27CE1DDEBBEE000017006F00C4
:10169A001B01250295037205C4078E0AD70DA311F3
:1016AA00F515D31A3F203D26D02CFC33C33B2944E1
:1016BA002F4DD9562A61236CC77718841991CB9E6E
:1016CA0032AD4EBC22CCB0DCF9ED00001000540063
:1016DA00DF00BE01F9029B04AB063109310CB30FDE
:1016EA00BC135118781D34238B298130193859407D
:1016FA004349DD52285D2968E37359808F8D889BA1
:10170A0047AACEB922CA44DB38ED00000B004000DC
:10171A00B0006A017802E603BB050008BD0AFA0DAB
:10172A00BC110C16EE1A69208326412DA934C03C3F
:10173A008B450F4F505954641F70B57C1B8A5698BD
:10174A0068A757B727C8DBD977EC00000800310033
:10175A008B0026010D024C03EC04F7067609710C86
:10176A00F00FFC139C18D71DB423392A6F315A394C
:10177A0003426D4BA155A3607A6C2C79BD863495D2
:10178A0096A4E9B431C674D8B7EB00000600250068
:10179A006E00EF00B401CA023A0410065508130B92
:1017AA00530E1E127D16791B19216627672E2636BF
:1017BA00A83EF7471952165DF468BC7574832392E4
:1017CA00D0A182B240C410D7F8EA000004001C007D
:1017DA005700C2006A015C02A20347055707DC09E9
:1017EA00E00C6D108D144B19AE1EC2248F2B1E33C4
:1017FA00793BA944B64EA9598B6565724080238FFF
:10180A00179F24B054C2AED53AEA0000030015006F
:10181A0044009E002D01FF011F0398047706C708A4
:10182A00920BE40EC8124917711C4C22E42843306B
:10183A0074388241774B5D563F62276F1F7D328C29
:10184A00699CCEAD6DC04ED47BE900000200100049
:10185A0036008000FA00B001AE020004B205D007DB
:10186A00660A800D2A1170155E1A00206226902DD4
:10187A009635803E5A4830530E5F006C127A508972
:10188A00C69980AB8ABEF0D2BEE8000001000C0007
:10189A002B006800D0006D014D027B030405F4069D
:1018AA0058093D0CAF0FBD137118DB1D0824042B1A
:1018BA00DD32A13B5E452150F85BF06818777E86E1
:1018CA002F973AA9ACBC95D101E8000001000900A4
:1018DA0022005400AC003501FA0108036B043106FA
:1018EA006608180B560E2C12A916DC1BD2219C284E
:1018FA004830E53882422E4DFB58F6653174BA837A
:10190A00A394FBA6D3BA3BD045E700000100070029
:10191A001B0045008F000501B301A402E5038305FE
:10192A008C070F0A190DBB100215FE19C01F572686
:10193A00D42D4836C33F584A175612635B71058146
:10194A002292C4A4FFB8E5CE89E600000100050092
:10195A00150038007700DD0076014C026E03E804BA
:10196A00C9061E09F90B670F79134018CE1D3224D8
:10197A00802BCA33223D9C474B534360986E5E7E50
:10198A00AC8F95A22FB790CDCEE5000000000400E1
:10199A0011002D006300BB004101000205035E0433
:1019AA0019064408F10A2E0E0D12A116FA1B2C2252
:1019BA004A2969319D3AFA449650885DE56BC67B9F
:1019CA00408D6CA063B53DCC14E500000000030017
:1019DA000D00250052009E001401BE01A902E30376
:1019EA007B057F07FF090E0DBC101D15431A432006
:1019FA003227242F32387042F84DE15A44693A7935
:101A0A00DF8A4C9E9CB3EDCA5AE400000000020033
:101A1A000A001E0044008600ED0084015802760385
:101A2A00ED04CB062309050C840FB313A718751E02
:101A3A003425FA2CE035FF3F704B4D58B366BD761E
:101A4A008888329CDAB19FC9A0E300000000020036
:101A5A000800180039007100CB005201100215036A
:101A6A006D0429065908110B620E61122417C11C54
:101A7A005023EA2AA733A43DFC48CC5532644C745F
:101A8A003B86209A1CB053C8E8E20000000001001F
:101A9A00060014002F006000AF002601D201BE022A
:101AAA00FA039605A107300A550D2611B915261B0A
:101ABA008521F1288631603B9D465D53C061E871FE
:101ACA00F883149862AE09C730E2000000000100F2
:101ADA000500100027005100960000019A017102CA
:101AEA0093031005F90661095C0C00106414A1192E
:101AFA00D11F10277B2F3139524400515E5F916FFD
:101B0A00BF811096ADACC1C578E1000000000100AC
:101B1A0004000D00200045008100DF0069012C024D
:101B2A00360397045F06A208750BEE0E24133218CB
:101B3A00331E4525862D17371A42B44E0B5D466D66
:101B4A00907F1294FCAA7BC4C1E00000000001004F
:101B5A0003000B001B003A006F00C2003E01EF01B8
:101B6A00E3022904D305F3079F0AEE0DF811D816EC
:101B7A00AB1C8F23A52B1035F43F794CC65A076B43
:101B8A00697D1C924FA938C30BE0000000000000D9
:101B9A0002000900160031005F00A9001801B9010E
:101BAA009802C60352055207D909FF0CDE10911597
:101BBA00361BED21D8291C33E03D4D4A8F58D46895
:101BCA004D7B2B90A7A7F6C155DF0000000000004F
:101BDA00020007001300290052009300F700880151
:101BEA0055026B03DD04BD062109200CD50F5C14D8
:101BFA00D4195E201E283B31DE3B32486756AD665B
:101C0A003979428E02A6B7C0A0DE000000000000AB
:101C1A00020006000F00230046008000D9005D0183
:101C2A0019021A03720434067608500BDD0E3913B2
:101C3A008418E21E77266C2FEC3926464B549164A1
:101C4A002E775F8C62A479BFEBDD000000000000F4
:101C5A00010005000D001E003C006F00C0003701A6
:101C6A00E201CF021004B605D8078E0AF40D261237
:101C7A004517771DE124AD2D0A3829443D527F626C
:101C8A002C75828AC6A23EBE37DD00000000000025
:101C9A00010004000B00190034006100A9001501BD
:101CAA00B1018C02B60342054607D909190D221162
:101CBA0017161C1C5B23FF2B38363A423C507960BE
:101CCA003373AC882EA105BD83DC00000000000040
:101CDA0001000300090015002C0054009500F600CD
:101CEA0085014F026403D704BE0631094B0C2D103F
:101CFA00F814D21AE621612A75345940474E7E5E9D
:101D0A004271DC86999FCEBBD0DB00000000000048
:101D1A00010002000700120026004A008300DB00CF
:101D2A005E0118021A037504400693088A0B450FD0
:101D3A00E71397198020D228C132863E5E4C8D5C0B
:101D4A00596F1285099E98BA1EDB00000000000038
:101D5A000000020006000F00210040007300C300CB
:101D6A003B01E601D5021A04CB050008D50A6B0E21
:101D7A00E4126A18291F52271B31C03C814AA65A0D
:101D8A00796D4E837D9C65B96CDA00000000000015
:101D9A000000020005000D001C0038006600AE00BD
:101DAA001B01B9019702C7035F0577072B0A9C0D30
:101DBA00EE114B17E01DE025832F073BB048C958A9
:101DCA00A16B9081F49A34B8BBD9000000000000DE
:101DDA000000010004000B001800310059009B00AC
:101DEA00FE008F015E027A03FB04F7068C09D90C08
:101DFA0005113916A41C7B24F82D5A39EB46F656E0
:101E0A00D169D87F709904B70AD900000000000090
:101E1A00000001000300090015002A004F008A0093
:101E2A00E4006A01290234039E047F06F608210CA5
:101E3A0028103415761B2323792CBA3730452C55B4
:101E4A000968267EEF97D7B55AD80000000000002F
:101E5A0000000100030008001200250045007B0075
:101E6A00CD004801FA01F302470410066908740B11
:101E7A00560F3B14541AD921072B263680436C532C
:101E8A0048667A7C7296ABB4ABD7000000000000BB
:101E9A000000000000000000000000000000000038
:101EAA000000000000000000000000000000000028
:101EBA000000000000000000000000000000000018
:101ECA00000000000000000000000000CC9F00009D
:101EDA00D29F0100E09F0200DA9F0300E59F040001
:101EEA00EA9F0501F49F0608FE9F070808A0080458
:101EFA00000009006D6178206272696768746E6516
:101F0A0073733A200067616D6D613A2000646961FC
:101F1A006C733A006469616C20003A206D696E3D09
:101F2A002000206D61783D2000206375723D2000FD
:101F3A00207261773D200020696E763D20003031A5
:101F4A003233343536373839616263646566000D79
:101F5A000A00666163746F72792072657365740032
:101F6A006C6F6164696E6720656570726F6D00726F
:101F7A006573657474696E6700736176696E67204C
:101F8A00656570726F6D00736574206C65642000FE
:101F9A0073796E746178206572726F7200756E6BF8
:101FAA006E6F776E20636F6D6D616E64006C616D2C
:101FBA007073683E20004920616D2061206C616D5C
:101FCA007000444542554700464143544F525920F8
:101FDA005245534554004C4F414400534156450025
:101FEA00734554204C4544203000736574206C6559
:101FFA0064203100736574206C6564203200736557
:10200A0074204D4158204252494748544E45535333
:01201A0000C5
:08201B0000000100D49514003F
:00000001FF
